:040000000BEF00F012
:100008005F82FACF1DF0FBCF1EF01BED10F0DFEF83
:0200180011F0E5
:1008000000CC086E08090845083C03540065006DDB
:100810000070006500720061007400750072006570
:100820000020004D006F006E00690074006F0072C0
:100830000069006E006700200053007900730074A7
:100840000065006D0009022900010100C0320904A1
:100850000000020300000009211101000122240010
:10086000070581034000010705010340000128033B
:10087000540065006D006100730065006B0020008E
:1008800050006F006C007900740065006300680020
:100890006E006900630006FFFF0901A1011901292B
:1008A00005150025FF750895058102190129051513
:1008B0000025FF750895059102C012010002000095
:1008C0000008D8043F0000010102000104030904EC
:0108D0000027
:1008D200200E576001D012006DB212000001645167
:1008E20000016511D8B407D064C0D9FF65C0DAFF32
:1008F2000001DFBE1200410E05010219D8A438D052
:1009020081B80ED0AB0E0501406F010E0501416F9B
:10091200550E0501426F000E0501436FA90E0DD061
:10092200AB0E0501406F010E0501416F000E05017E
:10093200426F000E0501436FFE0E0501446F4A50DF
:100942004B10D8B406D04AC0D9FF4BC0DAFFDFBE85
:100952000FD0010E2B6E400E2C6E050E2D6E050E65
:100962002E6E010ED3EC09F02BC04AF02CC04BF0D6
:10097200420E05010219D8A438D081BA0ED0AB0EAE
:100982000501406F010E0501416F650E0501426FC1
:10099200000E0501436F990E0DD0AB0E0501406F9D
:1009A200010E0501416F000E0501426F000E0501A7
:1009B200436FFE0E0501446F4A504B10D8B406D067
:1009C2004AC0D9FF4BC0DAFFDFBE0FD0010E2B6E3B
:1009D200400E2C6E050E2D6E050E2E6E010ED3EC02
:1009E20009F02BC04AF02CC04BF0430E050102194E
:1009F200D8A434D0AB0E0501406F010E0501416F42
:100A0200000E0501426F000E0501436FFE0E050147
:100A1200446F83A002D0010E01D0000EFF0A336E94
:100A220083503318FE0B3318836E4A504B10D8B4E0
:100A320006D04AC0D9FF4BC0DAFFDFBE0FD0010E8D
:100A42002B6E400E2C6E050E2D6E050E2E6E010EB7
:100A5200D3EC09F02BC04AF02CC04BF0440E050138
:100A62000219D8A42AD0AB0E0501406F010E050170
:100A7200416F000E0501426F000E0501436FFE0E2D
:100A82000501446F839483824A504B10D8B406D038
:100A92004AC0D9FF4BC0DAFFDFBE0FD0010E2B6E6A
:100AA200400E2C6E050E2D6E050E2E6E010ED3EC31
:100AB20009F02BC04AF02CC04BF0450E050102197B
:100AC200D8A42AD0AB0E0501406F010E0501416F7B
:100AD200000E0501426F000E0501436FFE0E050177
:100AE200446F838483924A504B10D8B406D04AC0D4
:100AF200D9FF4BC0DAFFDFBE0FD0010E2B6E400EC6
:100B02002C6E050E2D6E050E2E6E010ED3EC09F025
:100B12002BC04AF02CC04BF0500E05010219D8A48C
:100B220038D081B60ED0AB0E0501406F010E050123
:100B3200416F650E0501426F000E0501436F990E6C
:100B42000DD0AB0E0501406F010E0501416F000E85
:100B52000501426F000E0501436FFE0E0501446F51
:100B62004A504B10D8B406D04AC0D9FF4BC0DAFF66
:100B7200DFBE0FD0010E2B6E400E2C6E050E2D6EB9
:100B8200050E2E6E010ED3EC09F02BC04AF02CC0DC
:100B92004BF0510E05010219D8A438D081B40ED001
:100BA200AB0E0501406F010E0501416F650E050197
:100BB200426F000E0501436F990E0DD0AB0E050179
:100BC200406F010E0501416F000E0501426F000EDC
:100BD2000501436FFE0E0501446F4A504B10D8B415
:100BE20006D04AC0D9FF4BC0DAFFDFBE0FD0010EDC
:100BF2002B6E400E2C6E050E2D6E050E2E6E010E06
:100C0200D3EC09F02BC04AF02CC04BF0000E2B6E37
:100C1200000E2C6E050E2D6E050E2E6E010ED3ECFF
:100C220009F02BC064F02CC065F01200040122050B
:100C3200D8A410D0040120511F0B0009D8A40AD057
:100C42003F8E030E04012119D8A402D0010E01D057
:100C5200000E546E04012251D8A412000401205146
:100C62001F0B020AD8A41200040124510F0B000921
:100C7200D8B41200040124510F0B156E020E156038
:100C82001200200E5718D8A412003F8E040124BF70
:100C92001BD0040124510F0B156E1550020D460E88
:100CA200F324D96E000EF420DA6EDECF19F0DDCF18
:100CB2001AF0040124510F0B156E1550010D4E0E42
:100CC200F324D96E000E1AD0040124510F0B156EB5
:100CD2001550020D420EF324D96E000EF420DA6E86
:100CE200DECF19F0DDCF1AF0040124510F0B156E7F
:100CF2001550010D4C0EF324D96E000EF420DA6E5D
:100D0200DF50186E18B006D0FB0E1914196EFF0EC4
:100D12001A1404D0040E1910196E1A501A6E040116
:100D220024BF0BD0040124510F0B156E1550020D78
:100D3200460EF324D96E000E0AD0040124510F0B83
:100D4200156E1550020D420EF324D96E000EF420DA
:100D5200DA6E19C0DEFF1AC0DDFF030E040121198D
:100D6200D8A42ED019C0D9FF1AC0DAFFDFAE1BD02B
:100D7200040124BF0BD0040124510F0B156E155032
:100D8200010D4E0EF324D96E000E0AD00401245137
:100D92000F0B156E1550010D4C0EF324D96E000E7B
:100DA200F420DA6EDF8219C0D9FF1AC0DAFF000E12
:100DB200DB8419C0D9FF1AC0DAFF000EDB8E1200E5
:100DC200040E1918196E1A501A6E19C0D9FF1AC0DA
:100DD200DAFFDFAE1BD019C0D9FF1AC0DAFF7F0ECF
:100DE200DF1619C0D9FF1AC0DAFF000EDB8C000E25
:100DF2000E6E050E0D6E19C00FF01AC010F0000E27
:100E0200126E020E116EDCEC0FF006D019C0D9FF83
:100E12001AC0DAFF000EDB8C040E1918196E1A5074
:100E22001A6E18B206D019C0D9FF1AC0DAFFDFAEA7
:100E320030D0040124BF0BD0040124510F0B156ED6
:100E42001550010D4E0EF324D96E000E0AD0040186
:100E520024510F0B156E1550010D4C0EF324D96E53
:100E6200000EF420DA6EDF9219C0D9FF1AC0DAFF41
:100E72003B0EDF16000E0E6E050E0D6E19C00FF042
:100E82001AC010F0000E126E020E116EDCEC0FF0A2
:100E920006D019C0D9FF1AC0DAFF3B0EDF160401D3
:100EA20024510F0B156E1550010D700EF324166EA2
:100EB2000F0EF420176E16C0D9FF17C0DAFFFE0E10
:100EC200DF161200A09A000E6A6E000E686E000E07
:100ED200706E710E2B6E0F0E2C6E000E2E6E000EAB
:100EE2002D6E000E306E010E2F6EB3EC11F0160E49
:100EF2006F6E9F0E6B6E7B0E696E000E336E070E69
:100F0200336401D00ED03350040D000EF324D96E99
:100F1200040EF420DA6EDE6ADE6ADE6ADD6A332AE5
:100F2200EED76D8C000E6E6E6D986D9C6896000EFD
:100F32003F6E000E376E000E396E000E386E68B6C8
:100F4200F5D7010E00016B6F010E00016C6F000EF0
:100F52000001696F000E00016A6F000E556E000EEF
:100F6200336E010E336401D02ED03350020D420E87
:100F7200F324D96E000EF420DA6E000EDE6E000E3F
:100F8200DD6E3350020D460EF324D96E000EF420AE
:100F9200DA6E000EDE6E000EDD6E3350010D4C0E69
:100FA200F324D96E000EF420DA6E000EDF6E335099
:100FB200010D4E0EF324D96E000EF420DA6E000EEF
:100FC200DF6E332ACED7080E426E040E436E160E23
:100FD200706E040E0401036F200E026F080E0401EE
:100FE200016F040E0401006F0401008F000E5C6E9D
:100FF200000E0001606F000E616F000E626F000E46
:10100200636F000E00016D6F000E576E1200A09A02
:10101200000E6A6E000E686E000E706E710E016E2A
:101022000F0E026E000E046E000E036E000E066EB0
:10103200010E056EC9EC11F0160E6F6E9F0E6B6EEF
:101042007B0E696E000E096E070E096401D00ED088
:101052000950040D000EF324D96E040EF420DA6E4A
:10106200DE6ADE6ADE6ADD6A092AEED76D8C000E60
:101072006E6E6D986D9C6896000E3F6E000E376E18
:10108200000E396E000E386E68B6F5D7010E0001FB
:101092006B6F010E00016C6F000E0001696F000E94
:1010A20000016A6F000E556E000E096E010E096492
:1010B20001D02ED00950020D420EF324D96E000E3B
:1010C200F420DA6E000EDE6E000EDD6E0950020DA7
:1010D200460EF324D96E000EF420DA6E000EDE6E98
:1010E200000EDD6E0950010D4C0EF324D96E000E78
:1010F200F420DA6E000EDF6E0950010D4E0EF3245D
:10110200D96E000EF420DA6E000EDF6E092ACED7F9
:10111200080E426E040E436E160E706E040E04012B
:10112200036F200E026F080E0401016F040E04010A
:10113200006F0401008F000E5C6E000E0001606FF4
:10114200000E616F000E626F000E636F000E0001F1
:101152006D6F000E576E12005704D8B46DBA06D0E8
:10116200000E686E69806988020E576E68B469A4C1
:1011720003D0689451EC11F06DA202D0A19A120032
:1011820068B069A006D008EC08F0A08A040E576E79
:10119200689068B869A802D09CEC11F068AC1AD0CB
:1011A20069AC0ED0000E0E6E730E0D6E000E0F6E39
:1011B200000E106E000E126E010E116EDCEC0FF0BE
:1011C200689CF2EC11F05850D8A458065850D8B484
:1011D2002EEC0DF068BA69AA02D084EC10F068B265
:1011E20069A20FD07F0E0E6E0D68000E0F6E000EFC
:1011F200106E000E126E010E116EDCEC0FF0000E7E
:101202006A6E040E576002D0A19A120069A638D005
:10121200000E1C6E030E1C6401D032D068A630D0C2
:101222006CCF5EF05E30E832E8320F0B5A6E689691
:101232005EB407D05A50010D4E0EF324D96E000E43
:1012420006D05A50010D4C0EF324D96E000EF42034
:10125200DA6EDF705A50D8A403D0FDEC0EF00ED037
:10126200000E0E6E720E0D6E5E0E0F6E000E106E82
:10127200000E126E000E116EDCEC0FF01C2ACAD7A3
:10128200A19A1200800E04012019D8A41200C00EE7
:101292003F6E7CD0BA0E3C6E080E3D6E000E416E63
:1012A200120E406E120004012251D8A43ED0040155
:1012B2002251020D070EF324F66E080EF420F76E8B
:1012C2000900F5CF3CF00A00F5CF3DF0020E3C24B8
:1012D200016E000E3D20026E01C0F6FF02C0F7FF54
:1012E200F86A070EF76403D00800F55005D0F6CF70
:1012F200E9FFF7CFEAFFEF50406E030E3C24016E88
:10130200000E3D20026E01C0F6FF02C0F7FFF86A30
:10131200070EF76403D00800F55005D0F6CFE9FFB9
:10132200F7CFEAFFEF50416E1200000E3F6E12003F
:10133200030E0401226124D004012251020D010E88
:10134200F324F66E080EF420F76E0900F5CF3CF098
:101352000A00F5CF3DF03CC0F6FF3DC0F7FFF86A4A
:10136200070EF76403D00800F55005D0F6CFE9FF69
:10137200F7CFEAFFEF50016E0150406E416A120052
:10138200000E3F6E1200000E3F6E12000401235148
:10139200010AD8B47FD7030AD8B485D7010AD8B4D2
:1013A200C7D7F1D70001706F2B50D8B408D0000115
:1013B2007051020D420EF324D96E000E07D00001C7
:1013C2007051020D460EF324D96E000EF420DA6E2F
:1013D200DECF71F0DDCF72F00001715100017211A8
:1013E200D8A405D0000E2B6E000E2C6E1200000148
:1013F20020EE02F07151D9267251DA222CC0DEFFA2
:101402002DC0DDFF000120EE01F07151D92672518D
:10141200DA222EC0DFFF71C0D9FF72C0DAFF400EA0
:10142200DF1671C0D9FF72C0DAFF000EDB8671C011
:10143200D9FF72C0DAFF000EDB8E2B50D8B41AD05F
:1014420000017051020D420EF324D96E000EF420F9
:10145200DA6EDECF2FF0DDCF30F0040E2F18316EB2
:101462003050326E00017051020D420EF324D96EDB
:10147200000E19D000017051020D460EF324D96EF0
:10148200000EF420DA6EDECF2FF0DDCF30F0040E46
:101492002F18316E3050326E00017051020D460E1F
:1014A200F324D96E000EF420DA6E31C0DEFF32C0B2
:1014B200DDFF71C02BF072C02CF0120020EE01F0A3
:1014C2005050D9265150DA22DF50026E0250385C59
:1014D200000E3958D8A038C002F00250385E000E13
:1014E200395A000E016E11D00150010D280EF3245D
:1014F200D96E040EF420DA6E34C0E1FF35C0E2FF8B
:10150200DFCFE7FF344A352A012A0250015CD8A016
:10151200EBD738503910D8B432D020EE01F0525007
:10152200D9265350DA22080EDF6E20EE02F0525016
:10153200D9265350DA22280EDE6E040EDD6E50C01C
:10154200D9FF51C0DAFFDFBC0DD052C0D9FF53C062
:10155200DAFF480EDF6E52C0D9FF53C0DAFF000E29
:10156200DB8E120052C0D9FF53C0DAFF080EDF6EC5
:1015720052C0D9FF53C0DAFF000EDB8E120020EEFC
:1015820001F05250D9265350DA22080EDF6E20EEB7
:1015920002F05250D9265350DA22200EDE6E040E8B
:1015A200DD6E52C0D9FF53C0DAFF040EDF6E52C0A7
:1015B200D9FF53C0DAFF000EDB8E379E5650D8A4F7
:1015C20012002EEC0DF01200096E0150D8B407D0B3
:1015D2000950020D420EF324D96E000E06D00950B6
:1015E200020D460EF324D96E000EF420DA6EDECF21
:1015F2000AF0DDCF0BF00A500B10D8A405D0000E74
:10160200016E000E026E120020EE02F00A50D92680
:101612000B50DA2202C0DEFF03C0DDFF20EE01F034
:101622000A50D9260B50DA2204C0DFFF0AC0D9FFC4
:101632000BC0DAFF400EDF160AC0D9FF0BC0DAFF7B
:10164200000EDB860AC0D9FF0BC0DAFF000EDB8E6C
:101652000150D8B418D00950020D420EF324D96EAD
:10166200000EF420DA6EDECF05F0DDCF06F0040EB8
:101672000518076E0650086E0950020D420EF3243B
:10168200D96E000E17D00950020D460EF324D96E02
:10169200000EF420DA6EDECF05F0DDCF06F0040E88
:1016A2000518076E0650086E0950020D460EF32407
:1016B200D96E000EF420DA6E07C0DEFF08C0DDFF2F
:1016C2000AC001F00BC002F012006D983FBE3BD081
:1016D20037AE0ED0020E596E00016A51D8B4AFEC8B
:1016E2000EF0000E00016C6F000E00016B6F120015
:1016F20020EE01F05250D9265350DA22080EDF6E46
:1017020020EE02F05250D9265350DA22200EDE6E1D
:10171200040EDD6E52C0D9FF53C0DAFF0C0EDF6E2D
:1017220052C0D9FF53C0DAFF000EDB8E42C0D9FF90
:1017320043C0DAFF040EDF6E42C0D9FF43C0DAFFB6
:10174200000EDB8E1200040120AF13D0010E596E81
:1017520000016951D8B4AFEC0EF0000E00016C6FBD
:10176200000E00016B6F5650D8A412002EEC0DF043
:101772001200020E596E20EE01F05250D92653503B
:10178200DA22080EDF6E20EE02F05250D9265350B4
:10179200DA22200EDE6E040EDD6E52C0D9FF53C077
:1017A200DAFF040EDF6E52C0D9FF53C0DAFF000E1B
:1017B200DB8E000E00016C6F000E00016B6F565045
:1017C200D8A412002EEC0DF012003F8E710E016EA5
:1017D2000F0E026E000E046E000E036E000E066EF9
:1017E200010E056EC9EC11F0000E016E040E026EC0
:1017F200000E046E000E036E000E066E200E056EC5
:10180200C9EC11F06D8C000E156E010E156401D03D
:1018120016D01550010D4C0EF324D96E000EF42093
:10182200DA6E000EDF6E1550010D4E0EF324D96EE6
:10183200000EF420DA6E000EDF6E152AE6D75D0E7A
:10184200016E000E026E000E046E000E036E000E9C
:10185200066E010E056EC9EC11F06D9C080E426E0B
:10186200040E436E000E506E040E516E50C052F0C4
:1018720051C053F022C45CF05C50D8A403D0100EC7
:10188200576E1200000E0E6E010E0D6E5C0E0F6E84
:10189200000E106E000E126E010E116EDCEC0FF0D7
:1018A200200E576E120004012039E832030B0009A2
:1018B200D8A4120043D03F8E080E576E120043EC9C
:1018C20009F01200E6EC0BF012005C0E3C6E000E0A
:1018D2003D6E3F80010E406E3F8E12005AEC0EF0BC
:1018E200120017EC06F0120004012451010D5D0EE6
:1018F200F3243C6E000EF4203D6E3F80010E406EDC
:101902003F8E12003F8E04012451010D5D0EF3241F
:10191200D96E000EF420DA6E22C4DFFF1200000E30
:101922000E6E020E0D6E000E0F6E000E106E000E89
:10193200126E000E116EDCEC0FF012000401215148
:10194200000AD8B4CBD7010AD8B4CBD7020AD8B48C
:10195200C8D7060AD8B4AFD7030AD8B4B0D7010A99
:10196200D8B4DDD70F0AD8B4B0D7010AD8B4AAD7F1
:10197200030AD8B4B9D7010AD8B4C4D7070A1200E7
:10198200040120511F0BE806D8A4120004012451BF
:10199200D8A41200060E04012119D8B418D020D000
:1019A2005C04D8A41DD0570E3C6E080E3D6E000E8E
:1019B200416E090E0AD0C00E3F6E12D0960E3C6EDA
:1019C200080E3D6E000E416E240E406EF4D70401E7
:1019D2002351210AD8B4E4D7030AD8B4EFD7010AB5
:1019E20004012039E832030BE806D8A4120020D003
:1019F2006F0E3C6E000E3D6E000E416E010E406E8B
:101A0200C10E3F6E1200800E3F6E23C46FF01200B3
:101A12006E0E3C6E000E3D6E000E416E010E406E6B
:101A2200810E3F6E1200800E3F6E22C46EF01200D5
:101A320004012151010AD8B41200030AD8B4D8D73C
:101A4200010AD8B4E5D70A0AD8B41200030AD8B4F6
:101A5200DAD7010AD8A41200E6D700016B51D8A444
:101A62001200010E00016B6F00016C51D8A412002C
:101A7200010E00016C6F020E5918D8A415D020EE89
:101A820001F04250D9264350DA22000EDF6E42C0E6
:101A9200D9FF43C0DAFF480EDF6E42C0D9FF43C010
:101AA200DAFF000EDB8E12005904D8A41200000ED9
:101AB2000001686F20EE01F05050D9265150DA2211
:101AC200080EDF6E20EE02F05050D9265150DA2275
:101AD200200EDE6E040EDD6E50C0D9FF51C0DAFF5B
:101AE200040EDF6E50C0D9FF51C0DAFF000EDB8E4C
:101AF200010E0001686F20EE01F05250D9265350BA
:101B0200DA22080EDF6E20EE02F05250D926535030
:101B1200DA22200EDE6E040EDD6E52C0D9FF53C0F3
:101B2200DAFF800EDF6E1200080E016E415010E1E6
:101B3200080E405CD8B00CD040C001F05B50D8A475
:101B420002D0010E04D05B04D8A402D0020E5B6E58
:101B52000150405E000E415A20EE01F04250D9265B
:101B62004350DA2201C0DFFF280E0001666F040E27
:101B72000001676F3FA01CD03AD03CC0F6FF3DC0C9
:101B8200F7FFF86A66C0D9FF67C0DAFF070EF7648D
:101B920003D00800F55005D0F6CFE9FFF7CFEAFFF2
:101BA200EF50DF6E3C4A3D2A0001664B672B01066F
:101BB2000150D8B41200E1D73CC0F6FF3DC0F7FF98
:101BC200F86A66C0D9FF67C0DAFF070EF76403D070
:101BD2000800F55005D0F6CFE9FFF7CFEAFFEF5046
:101BE200DF6E3C4A3D2A0001664B672B010601501D
:101BF200D8B41200E1D742C0D9FF43C0DAFF000EC9
:101C0200DFBC010E026E040E4218426E4350436E58
:101C1200080E5718D8A40BD0040122517F0B6E6E08
:101C22006E50D8B402D0100E01D0040E576E590473
:101C3200D8A43AD020EE02F04250D9264350DA22FC
:101C4200280EDE6E040EDD6E95EC0DF0020E5B18B2
:101C5200D8A40DD042C0D9FF43C0DAFF040EDF6E14
:101C620042C0D9FF43C0DAFF000EDB8E12000250E1
:101C7200D8A40DD042C0D9FF43C0DAFF480EDF6EB0
:101C820042C0D9FF43C0DAFF000EDB8E120042C011
:101C9200D9FF43C0DAFF080EDF6E42C0D9FF43C04E
:101CA200DAFF000EDB8E120037BE379E000E596E31
:101CB2001200000E0401286F000E0401296F38D0B3
:101CC2003F8E5404D8A440D0040128833DD03F8ED7
:101CD2003BD03F8E040124BF0BD0040124510F0BD3
:101CE200016E0150020D460EF324D96E000E0AD089
:101CF200040124510F0B016E0150020D420EF32418
:101D0200D96E000EF420DA6EDECF02F0DDCF03F0E2
:101D120002C0D9FF03C0DAFFDFAE16D002C0D9FF7E
:101D220003C0DAFFDFA410D0010E0401286F0CD02B
:101D3200040120511F0B000AD8B4C2D7010AD8B43B
:101D4200C6D7030AD8B4C5D73FAE1200280E3C6EE0
:101D5200040E3D6E3F80020E406E1200000E000126
:101D6200696F000E00016A6F020E5918D8A41FD0C5
:101D720020EE01F05250D9265350DA22080EDF6EBF
:101D820020EE02F05250D9265350DA22280EDE6E8F
:101D9200040EDD6E52C0D9FF53C0DAFF480EDF6E6B
:101DA20052C0D9FF53C0DAFF000EDB8E1200405042
:101DB2000401265D415004012759D8B004D026C43D
:101DC20040F027C441F095EC0DF020EE02F04250B5
:101DD200D9264350DA22280EDE6E040EDD6E42C092
:101DE200D9FF43C0DAFF480EDF6E42C0D9FF43C0BD
:101DF200DAFF000EDB8E12002D0E586E5EC01BF055
:101E0200FD0E1B16D8A43BD05EC01BF0D8901B322F
:101E12003F0E1B161B50040D000EF324506E040ED1
:101E2200F420516E50C052F051C053F0040E5218BB
:101E3200526E5350536E50C0D9FF51C0DAFFDF309B
:101E4200E8320F0B0D0AD8A417D0200E016E040E33
:101E5200026E20EE02F05050D9265150DA22DECF27
:101E620003F0DDCF04F0000E066E080E056EA5EC41
:101E720010F048EC0FF0120054EC10F012005E501B
:101E8200FD0B040AD8A41200FCEC0DF01200000EA7
:101E92005B6E000E566E000E0001696F000E0001AF
:101EA2006A6F000E0001686F000E596E42C0D9FFC2
:101EB20043C0DAFF7F0EDF16040E4218426E435013
:101EC200436E42C0D9FF43C0DAFF7F0EDF16040E15
:101ED2004218426E4350436E52C0D9FF53C0DAFFDC
:101EE2007F0EDF16000E3F6E000E416E000E406E3A
:101EF200000E376E000E396E000E386E54EC0CF088
:101F0200000E0E6E030E0D6E000E0F6E000E106EA2
:101F1200000E126E000E116EDCEC0FF066EC0BF090
:101F22001200066E000E076E040E086E0150026E5D
:101F3200036AD890023603360650046E056AD890BA
:101F420004360536D890043605360250042603506E
:101F52000522D89004360536D8900436053604504A
:101F620007260550082207C0D9FF08C0DAFFDF9E06
:101F72000150D8A407D00650020D460EF324D96EA4
:101F8200000E06D00650020D420EF324D96E000E4A
:101F9200F420DA6E07C0DEFF08C0DDFF07C0D9FFFC
:101FA20008C0DAFFDF9C20EE04F00750D926085063
:101FB200DA22DF8C120015D041EC12F0120041EC53
:101FC20012F0010EFFEC10F0120041EC12F0020EC2
:101FD200FFEC10F012006BEC11F01200C1EC0CF0EF
:101FE20012000DC013F00EC014F01450000AD8B441
:101FF20004D07F0AD8A412001AD01350010AD8B410
:10200200EAD7030AD8B41200010AD8B4E7D7060AFD
:10201200D8B41200770AD8B41200010AD8B4CCD7C7
:10202200070AD8B4D2D7010AD8A41200C8D71350CD
:10203200FF0A12000600E9CF1FF0EACF20F0E1CF3D
:1020420021F0E2CF22F0D9CF23F0DACF24F0F3CF80
:1020520025F0F4CF26F0F6CF27F0F7CF28F0F8CF0F
:1020620029F0F5CF2AF0ADEC08F02AC0F5FF29C01F
:10207200F8FF28C0F7FF27C0F6FF26C0F4FF25C0EF
:10208200F3FF24C0DAFF23C0D9FF22C0E2FF21C040
:10209200E1FF20C0EAFF1FC0E9FF1EC0FBFF1DC019
:1020A200FAFF5F921100020E5918D8A403D05FEC18
:1020B2000AF01200000E596E00016851D8A41FD018
:1020C20020EE01F05250D9265350DA22080EDF6E6C
:1020D20020EE02F05250D9265350DA22200EDE6E44
:1020E200040EDD6E52C0D9FF53C0DAFF0C0EDF6E54
:1020F20052C0D9FF53C0DAFF000EDB8E1200000E71
:102102000001686F120070A01DD050C0D9FF51C0ED
:10211200DAFF800EDE18D8A414D042C0D9FF43C023
:10212200DAFF840EDE18D8A40CD050C0D9FF51C0FB
:10213200DAFF0C0EDF6E50C0D9FF51C0DAFF000E7D
:10214200DB8E7090689A120003C009F004C00AF096
:1021520001C007F002C008F00ED009C0D9FF0AC0C2
:10216200DAFF07C0E1FF08C0E2FFDFCFE7FF094A5D
:102172000A2A074A082A0506D8A006060528EDE11C
:102182000628D8B41200E9D70C6E09A405D0000EB7
:10219200016E0C5092EC0FF009A205D0010E016EF7
:1021A2000C5092EC0FF00C50010D700EF3240A6EDD
:1021B2000F0EF4200B6E0AC0D9FF0BC0DAFF09C064
:1021C200DFFF12002C6E11D0010E1BEC11F0020E7B
:1021D2001BEC11F0F00E95169388938A000E13EC07
:1021E20012F0000E2FEC12F012002C50000AD8B49C
:1021F200EBD7010AD8B41200030A1200026E11D002
:10220200010E36EC11F0020E36EC11F0F00E9516BE
:102212009388938A000E21EC12F0000E38EC12F033
:1022220012000250000AD8B4EBD7010AD8B4120047
:10223200030A12002B6E08D0959612009594120094
:1022420095921200959012002B50000AD8B41200F9
:10225200010AD8B4F1D7030AD8B4F0D7010AD8B426
:10226200EFD7070AD8A41200EDD7016E08D09596D1
:10227200120095941200959212009590120001504E
:10228200000AD8B41200010AD8B4F1D7030AD8B4AC
:10229200F0D7010AD8B4EFD7070AD8A41200EDD7B5
:1022A200000E556E000E0E6E740E0D6E000E0F6E49
:1022B200000E106E000E126E000E116EDCEC0FF0AE
:1022C2006D92699401D0689468B4FDD7000E000144
:1022D2006D6F1200000E4A6E000E4B6E1E0E096EDE
:1022E200010EC5EC10F0000E016E000E026E050E1E
:1022F200036E050E046E010EE5EC0AF001C064F0F7
:1023020002C065F012005750D8A41200000E6D6E84
:10231200000E696E160E6F6E9F0E6B6E7B0E696EEF
:10232200D08EA28AA08AF28E01D06D866DA6FDD7CC
:10233200010E576E1200698468986D82010E556E07
:10234200000E00016D6F000E0E6E750E0D6E000E0A
:102352000F6E000E106E000E126E000E116EDCEC8F
:102362000FF012002BC031F02CC032F008D031C077
:10237200D9FF32C0DAFF2DC0DFFF314A322A2F06E1
:10238200D8A030062F28F3E13028D8B41200EFD7B6
:1023920001C007F002C008F008D007C0D9FF08C08A
:1023A200DAFF03C0DFFF074A082A0506D8A006069F
:1023B2000528F3E10628D8B41200EFD700EE60F04A
:1023C200100EEE6AE806FDE100EE34F02B0EEE6A26
:1023D200E806FDE15F905F92000EF86E000105EFE6
:1023E20012F0010E00016027000E612362236323B5
:1023F2005550D8A4120000016D2B00016D51D8A4D4
:10240200120000016D691200000EE3EC10F063ECA3
:1024120007F084EC11F0839083928394839669ECA5
:1024220004F0FDD72B6E2B50D8A41200010EC26E01
:10243200C150F00B0E09C16E3C0EC06EC08E120070
:10244200016E0150D8A41200010EC26EC150F00BF1
:102452000E09C16E3C0EC06EC08E12002B6E02D0F1
:10246200928012002B50000AD8A41200F9D7016EF4
:1024720002D0928012000150000AD8A41200F9D7AB
:02248200120046
:020000040020DA
:08000000FFFFFFFFFFFFFFFF00
:020000040030CA
:0E000000240E3F1EFF8181FF0FC00FE00F4056
:00000001FF
